:020000040000FA
:0400000032EF10F0DB
:10060000003F065B4F666D7D077F6F777C395E79B3
:1006100071554C445253584142597320202057453C
:100620004C434F4D4520544F202020002020205384
:100630004D415254204144454741202000464552F7
:100640004E414E444F275320414445474100524FAD
:1006500053452020202020493A2031302043004DAE
:10066000414C424543202020493A2031322043006A
:1006700043414245524E455420493A2020362043BA
:10068000004D45524C4F54202020493A202039201B
:100690004300524945534C494E4720493A2020399E
:1006A0002043005154443A203520005154443A200C
:1006B0003820005154443A203132005154443A20F9
:1006C0003134005154443A20313900543A2000006A
:1006D0008EEC0FF03E6E3E50D8B471EF03F073EF26
:1006E00003F036EF04F015EF04F0800E16EC10F076
:1006F0005F0E0F6E060E106E62EC0EF0C00E16EC62
:1007000010F0B30E0F6E060E106E62EC0EF0180EA7
:10071000326E000E336E000E346E000E356E000E1B
:10072000376E0C0E366E36EF04F0800E16EC10F0BD
:10073000810E0F6E060E106E62EC0EF0C00E16ECFF
:1007400010F0C30E0F6E060E106E62EC0EF0160E59
:10075000326E000E336E000E346E000E356E000EDB
:10076000376E090E366E36EF04F0800E16EC10F080
:10077000920E0F6E060E106E62EC0EF0C00E16ECAE
:1007800010F0A30E0F6E060E106E62EC0EF0090E46
:10079000326E000E336E000E346E000E356E000E9B
:1007A000376E070E366E36EF04F0800E16EC10F042
:1007B0004E0E0F6E060E106E62EC0EF0C00E16ECB2
:1007C00010F0BB0E0F6E060E106E62EC0EF0150EE2
:1007D000326E000E336E000E346E000E356E000E5B
:1007E000376E0A0E366E36EF04F0800E16EC10F0FF
:1007F000700E0F6E060E106E62EC0EF0C00E16EC50
:1008000010F0AB0E0F6E060E106E62EC0EF0080EBE
:10081000326E000E336E000E346E000E356E000E1A
:10082000376E060E366E36EF04F03E50236E246AA5
:100830002450000AD8B41FEF04F036EF04F0235020
:10084000440AD8B4B5EF03F0080AD8B495EF03F022
:100850001E0AD8B4D5EF03F0010AD8B4F5EF03F0BF
:10086000060AD8B475EF03F036EF04F0000E026EFE
:10087000000E016E8DEC0EF001C046F002C047F094
:10088000000E47BEFF0E486E496E540E3DEC10F050
:100890003A0E3DEC10F0200E3DEC10F0FF0E116E04
:1008A000030E126E000E136E000E146E46C001F0A1
:1008B00047C002F048C003F049C004F01E0E056EA8
:1008C000000E066E000E076E000E086EA9EC0DF00D
:1008D00001C00DF002C00EF003C00FF004C010F014
:1008E00050EC0CF00DC025F00EC026F00FC027F024
:1008F00010C028F00A0E116E000E126E000E136E5C
:10090000000E146E25C00DF026C00EF027C00FF0AB
:1009100028C010F050EC0CF00DC01AF00EC01BF007
:100920000FC01CF010C01DF00A0E1E6E000E1F6ED0
:10093000000E206E000E216EECEC0CF01A50300F01
:100940003DEC10F0FF0E116E030E126E000E136ED2
:10095000000E146E46C001F047C002F048C003F01C
:1009600049C004F01E0E056E000E066E000E076EE6
:10097000000E086EA9EC0DF001C00DF002C00EF0E3
:1009800003C00FF004C010F050EC0CF00DC01AF0D2
:100990000EC01BF00FC01CF010C01DF00A0E1E6E22
:1009A000000E1F6E000E206E000E216EECEC0CF09F
:1009B0001A50300F3DEC10F00A0E3DEC10F0120012
:1009C00002BEEEEF04F0025007E1080E015CD8B061
:1009D000ECEF04F0EEEF04F018EF05F00350041014
:1009E000D8B4F5EF04F0F7EF04F007EF05F001C01D
:1009F00005F0010E066E052A00EF05F0D8900636C8
:100A0000052EFEEF04F00650801206EF06F001C03E
:100A100005F0010E066E052A10EF05F0D890063697
:100A2000052E0EEF05F00650FF0A801606EF06F0C1
:100A300002BE26EF05F0025007E1100E015CD8B0AF
:100A400024EF05F026EF05F054EF05F0F80E01262F
:100A5000FF0E022203500410D8B431EF05F033EF3B
:100A600005F043EF05F001C005F0010E066E052A02
:100A70003CEF05F0D8900636052E3AEF05F006500B
:100A8000811206EF06F001C005F0010E066E052A80
:100A90004CEF05F0D8900636052E4AEF05F00650CB
:100AA000FF0A811606EF06F002BE62EF05F0025063
:100AB00007E1180E015CD8B060EF05F062EF05F0B9
:100AC00090EF05F0F00E0126FF0E022203500410F5
:100AD000D8B46DEF05F06FEF05F07FEF05F001C0C2
:100AE00005F0010E066E052A78EF05F0D89006365F
:100AF000052E76EF05F00650821206EF06F001C0D3
:100B000005F0010E066E052A88EF05F0D89006362E
:100B1000052E86EF05F00650FF0A821606EF06F056
:100B200002BE9EEF05F0025007E1200E015CD8B036
:100B30009CEF05F09EEF05F0CCEF05F0E80E0126E6
:100B4000FF0E022203500410D8B4A9EF05F0ABEF5A
:100B500005F0BBEF05F001C005F0010E066E052A99
:100B6000B4EF05F0D8900636052EB2EF05F006502A
:100B7000831206EF06F001C005F0010E066E052A8D
:100B8000C4EF05F0D8900636052EC2EF05F00650EA
:100B9000FF0A831606EF06F002BEDAEF05F00250F8
:100BA00007E1280E015CD8B0D8EF05F0DAEF05F0C8
:100BB00006EF06F0E00E0126FF0E0222035004109D
:100BC000D8B4E5EF05F0E7EF05F0F7EF05F001C069
:100BD00005F0010E066E052AF0EF05F0D8900636F6
:100BE000052EEEEF05F00650841206EF06F001C068
:100BF00005F0010E066E052A00EF06F0D8900636C5
:100C0000052EFEEF05F00650FF0A8416120002BE04
:100C100015EF06F0025007E1080E015CD8B013EFA3
:100C200006F015EF06F03FEF06F003500410D8B4BD
:100C30001CEF06F01EEF06F02EEF06F001C005F0E7
:100C4000010E066E052A27EF06F0D8900636052E0F
:100C500025EF06F0065092122DEF07F001C005F0C7
:100C6000010E066E052A37EF06F0D8900636052EDF
:100C700035EF06F00650FF0A92162DEF07F002BE80
:100C80004DEF06F0025007E1100E015CD8B04BEFBB
:100C900006F04DEF06F07BEF06F003500410D8B4D9
:100CA00054EF06F056EF06F068EF06F001C005F0CD
:100CB000F80E0526010E066E052A61EF06F0D890A3
:100CC0000636052E5FEF06F0065093122DEF07F063
:100CD00001C005F0F80E0526010E066E052A73EF19
:100CE00006F0D8900636052E71EF06F00650FF0A82
:100CF00093162DEF07F002BE89EF06F0025007E1D0
:100D0000180E015CD8B087EF06F089EF06F0B7EF58
:100D100006F003500410D8B490EF06F092EF06F0FE
:100D2000A4EF06F001C005F0F00E0526010E066ED8
:100D3000052A9DEF06F0D8900636052E9BEF06F0AB
:100D4000065094122DEF07F001C005F0F00E0526B5
:100D5000010E066E052AAFEF06F0D8900636052E76
:100D6000ADEF06F00650FF0A94162DEF07F002BE15
:100D7000C5EF06F0025007E1200E015CD8B0C3EFCA
:100D800006F0C5EF06F0F3EF06F003500410D8B4F8
:100D9000CCEF06F0CEEF06F0E0EF06F001C005F074
:100DA000E80E0526010E066E052AD9EF06F0D8904A
:100DB0000636052ED7EF06F0065095122DEF07F0F8
:100DC00001C005F0E80E0526010E066E052AEBEFC0
:100DD00006F0D8900636052EE9EF06F00650FF0A19
:100DE00095162DEF07F002BE01EF07F0025007E164
:100DF000280E015CD8B0FFEF06F001EF07F02DEFF1
:100E000007F003500410D8B408EF07F00AEF07F01A
:100E10001CEF07F001C005F0E00E0526010E066E7E
:100E2000052A15EF07F0D8900636052E13EF07F0C8
:100E3000065096122DEF07F001C005F0E00E0526D2
:100E4000010E066E052A27EF07F0D8900636052E0C
:100E500025EF07F00650FF0A96161200E6EC0AF09E
:100E60001750156E166A50EC10F01550011809E174
:100E700016500218D8B43FEF07F041EF07F007EF24
:100E800008F050EC10F0E5EF07F0800E16EC10F0D3
:100E90005F0E0F6E060E106E62EC0EF0C00E16ECBA
:100EA00010F0B30E0F6E060E106E62EC0EF0180E00
:100EB000326E000E336E000E346E000E356E000E74
:100EC000376E0C0E366E07EF08F0800E16EC10F041
:100ED000810E0F6E060E106E62EC0EF0C00E16EC58
:100EE00010F0C30E0F6E060E106E62EC0EF0160EB2
:100EF000326E000E336E000E346E000E356E000E34
:100F0000376E090E366E07EF08F0800E16EC10F003
:100F1000920E0F6E060E106E62EC0EF0C00E16EC06
:100F200010F0A30E0F6E060E106E62EC0EF0090E9E
:100F3000326E000E336E000E346E000E356E000EF3
:100F4000376E070E366E07EF08F0800E16EC10F0C5
:100F50004E0E0F6E060E106E62EC0EF0C00E16EC0A
:100F600010F0BB0E0F6E060E106E62EC0EF0150E3A
:100F7000326E000E336E000E346E000E356E000EB3
:100F8000376E0A0E366E07EF08F0800E16EC10F082
:100F9000700E0F6E060E106E62EC0EF0C00E16ECA8
:100FA00010F0AB0E0F6E060E106E62EC0EF0080E17
:100FB000326E000E336E000E346E000E356E000E73
:100FC000376E060E366E07EF08F06DEC0DF0156EFD
:100FD000166A1650000AD8B4F0EF07F007EF08F0D1
:100FE0001550440AD8B485EF07F0080AD8B465EF65
:100FF00007F01E0AD8B4A5EF07F0010AD8B4C5EF70
:1010000007F0060AD8B445EF07F007EF08F0120022
:10101000000E026E000E016E8DEC0EF001C046F067
:1010200002C047F0000E47BEFF0E486E496E4650A4
:1010300023180FE1475024180CE14850251809E106
:1010400049502618D8B427EF08F029EF08F0D7EF59
:1010500008F0000E106E010E0F6E000E126E090EDB
:10106000116E40EC0FF0CB0E0F6E060E106E62ECA0
:101070000EF0FF0E116E030E126E000E136E000EB8
:10108000146E46C001F047C002F048C003F049C0EA
:1010900004F01E0E056E000E066E000E076E000EAA
:1010A000086EA9EC0DF001C00DF002C00EF003C0F7
:1010B0000FF004C010F050EC0CF00DC027F00EC083
:1010C00028F00FC029F010C02AF00A0E116E000E91
:1010D000126E000E136E000E146E27C00DF028C0A5
:1010E0000EF029C00FF02AC010F050EC0CF00DC02B
:1010F0001AF00EC01BF00FC01CF010C01DF00A0E3D
:101100001E6E000E1F6E000E206E000E216EECECA7
:101110000CF01A50300F07EC10F0FF0E116E030E9A
:10112000126E000E136E000E146E46C001F047C022
:1011300002F048C003F049C004F01E0E056E000E18
:10114000066E000E076E000E086EA9EC0DF001C0D1
:101150000DF002C00EF003C00FF004C010F050EC10
:101160000CF00DC01AF00EC01BF00FC01CF010C028
:101170001DF00A0E1E6E000E1F6E000E206E000E79
:10118000216EECEC0CF01A50300F07EC10F0000E52
:10119000106E010E0F6E000E126E0F0E116E40ECEF
:1011A0000FF05D0E0F6E060E106E62EC0EF0120068
:1011B000000E026E180E016E000E046E000E036E1D
:1011C000E0EC04F0000E026E190E016E000E046ECB
:1011D000000E036EE0EC04F0000E026E1A0E016EBB
:1011E000000E046E000E036EE0EC04F0000E026EC2
:1011F0001B0E016E000E046E000E036EE0EC04F098
:10120000000E086E000E076EB5EC0EF070EF09F0E0
:10121000010E4224F66EF76A060EF7220800F5501A
:10122000076E086AB5EC0EF0000E026E180E016E25
:10123000000E046E010E036EE0EC04F0010E436E2E
:101240008DEF09F0010E4124F66EF76A060EF722C3
:101250000800F550076E086AB5EC0EF0000E026E3D
:10126000190E016E000E046E010E036EE0EC04F028
:10127000020E436E8DEF09F0010E4024F66EF76A00
:10128000060EF7220800F550076E086AB5EC0EF05E
:10129000000E026E1A0E016E000E046E010E036E39
:1012A000E0EC04F0030E436E8DEF09F0010E3F24D5
:1012B000F66EF76A060EF7220800F550076E086A08
:1012C000B5EC0EF0000E026E1B0E016E000E046EE9
:1012D000010E036EE0EC04F0000E436E8DEF09F09A
:1012E00043500A6E0B6A0B50000AD8B47AEF09F02B
:1012F0006CEF09F00A50000AD8B408EF09F0010AAF
:10130000D8B422EF09F0030AD8B43CEF09F0010A7F
:10131000D8B456EF09F06CEF09F0120002BE9CEF52
:1013200009F0025007E1080E015CD8B09AEF09F00D
:101330009CEF09F0B0EF09F001C003F0010E046E5C
:10134000032AA5EF09F0D8900436032EA3EF09F085
:1013500004508014056E0550016E026A42EF0AF0D7
:1013600002BEBEEF09F0025007E1100E015CD8B0DA
:10137000BCEF09F0BEEF09F0D4EF09F001C003F0B3
:10138000F80E0326010E046E032AC9EF09F0D89067
:101390000436032EC7EF09F004508114056E055082
:1013A000016E026A42EF0AF002BEE2EF09F002505B
:1013B00007E1180E015CD8B0E0EF09F0E2EF09F0A8
:1013C000F8EF09F001C003F0F00E0326010E046EE1
:1013D000032AEDEF09F0D8900436032EEBEF09F065
:1013E00004508214056E0550016E026A42EF0AF045
:1013F00002BE06EF0AF0025007E1200E015CD8B0F1
:1014000004EF0AF006EF0AF01CEF0AF001C003F047
:10141000E80E0326010E046E032A11EF0AF0D8909D
:101420000436032E0FEF0AF004508314056E0550A6
:10143000016E026A42EF0AF002BE2AEF0AF0025081
:1014400007E1280E015CD8B028EF0AF02AEF0AF075
:1014500040EF0AF001C003F0E00E0326010E046E17
:10146000032A35EF0AF0D8900436032E33EF0AF042
:1014700004508414056E0550016E026A42EF0AF0B2
:10148000016802681200E80E116E030E126E000E63
:10149000136E000E146E32C00DF033C00EF034C067
:1014A0000FF035C010F050EC0CF00DC01AF00EC06B
:1014B0001BF00FC01CF010C01DF00A0E1E6E000EB7
:1014C0001F6E000E206E000E216EECEC0CF01AC0A8
:1014D00023F01BC024F0640E116E000E126E000E7D
:1014E000136E000E146E32C00DF033C00EF034C017
:1014F0000FF035C010F050EC0CF00DC01AF00EC01B
:101500001BF00FC01CF010C01DF00A0E1E6E000E66
:101510001F6E000E206E000E216EECEC0CF01AC057
:1015200025F01BC026F00A0E116E000E126E000E82
:10153000136E000E146E32C00DF033C00EF034C0C6
:101540000FF035C010F050EC0CF00DC01AF00EC0CA
:101550001BF00FC01CF010C01DF00A0E1E6E000E16
:101560001F6E000E206E000E216EECEC0CF01AC007
:1015700027F01BC028F032C01AF033C01BF034C073
:101580001CF035C01DF00A0E1E6E000E1F6E000E00
:10159000206E000E216EECEC0CF01AC029F01BC07E
:1015A0002AF0000E016E23500BEC0EF0010E016EBE
:1015B00025500BEC0EF0020E016E27500BEC0EF0D6
:1015C000030E016E29500BEC0EF01200000E3B6E64
:1015D000000E3A6E000E0E6E000E0D6E0EBEFAEF8D
:1015E0000AF00E5009E1050E0D5CD8A0FAEF0AF0E2
:1015F000FCEF0AF0FEEF0AF05FEF0BF00DC00AF00F
:10160000030E0A26010E0B6E000E0C6E0A2A0CEF5A
:101610000BF0D8900B360C360A2E09EF0BF00BC0EE
:1016200007F00CC008F0B5EC0EF0000E026E0A0ECA
:10163000016E8EEC09F001500210D8B422EF0BF0CD
:1016400024EF0BF037EF0BF00DC00AF0010E0B6E1C
:10165000000E0C6E0A2A30EF0BF0D8900B360C36C9
:101660000A2E2DEF0BF00B503A120C503B12000ECD
:10167000026E090E016E8EEC09F001500210D8B412
:1016800044EF0BF046EF0BF05BEF0BF00DC00AF0F0
:10169000050E0A26010E0B6E000E0C6E0A2A54EF80
:1016A0000BF0D8900B360C360A2E51EF0BF00B5086
:1016B0003A120C503B120D4A0E2AEEEF0AF03A5045
:1016C000381807E13B503918D8A469EF0BF06BEFDD
:1016D0000BF06EEF0BF0440674EF0BF0010E446E4E
:1016E0003AC038F03BC039F04450D8A47AEF0BF040
:1016F0007CEF0BF080EF0BF038C03CF039C03DF0D0
:101700001200F6EC0BF05DEC0FF037EC0EF055EC40
:1017100010F025EC10F0DCEC0EF01B0E0F6E060E38
:10172000106E62EC0EF0C00E16EC10F02C0E0F6E68
:10173000060E106E62EC0EF00A0E30EC0DF0010E8B
:1017400016EC10F0800E16EC10F03D0E0F6E060E2B
:10175000106E62EC0EF0170E026E700E016EF6EC5B
:101760000FF0D3EF0BF02EEC07F0D8EC08F0010EE1
:101770002D6EF0EF0BF068EC03F0020E2D6EF0EF23
:101780000BF008EC08F0030E2D6EF0EF0BF0A2EC5E
:101790000CF0D8EC08F0040E2D6EF0EF0BF0000EFC
:1017A0002D6EF0EF0BF02D502B6E2C6A2C50000A92
:1017B000D8B4DDEF0BF0CFEF0BF02B50000AD8B40C
:1017C000B3EF0BF0010AD8B4BBEF0BF0030AD8B4A7
:1017D000C1EF0BF0010AD8B4C7EF0BF0CFEF0BF05D
:1017E00048EC10F0ABEF0BF000EF00F0000E026ED3
:1017F0001C0E016E000E046E000E036E07EC06F068
:10180000000E026E1D0E016E000E046E000E036EC1
:1018100007EC06F021EC0FF0000E026E0F0E016EC9
:1018200076EC0FF0000E0B6E000E0A6E030EE3EC6A
:101830000FF0000E026E050E016E76EC0FF0000E3A
:101840000B6E000E0A6E030EE3EC0FF0000E026E3C
:10185000A00E016E59EC10F0000E0B6E000E0A6E19
:10186000030EE3EC0FF0000E026EA00E016E59ECB9
:1018700010F0000E0B6E000E0A6E020EE3EC0FF07D
:10188000000E026E0A0E016E76EC0FF0280E16ECBA
:1018900010F00C0E16EC10F0010E16EC10F0120009
:1018A000000E156E000E166E000E176E000E186EEE
:1018B0001150121013101410D8B461EF0CF063EF34
:1018C0000CF099EF0CF0010E196E6DEF0CF0D89042
:1018D0001136123613361436192A14AE72EF0CF084
:1018E00074EF0CF067EF0CF0D890153616361736FB
:1018F000183611500D5C12500E5813500F581450DA
:101900001058D8A086EF0CF088EF0CF091EF0CF097
:1019100011500D5E12500E5A13500F5A1450105A97
:101920001580D8901432133212321132192E74EFFE
:101930000CF015C00DF016C00EF017C00FF018C057
:1019400010F0120046C001F047C002F048C003F09A
:1019500049C004F01E0E056E000E066E000E076EE6
:10196000000E086EA9EC0DF00B0EBCEF0CF0D89039
:101970000432033202320132E82EB7EF0CF001C01C
:101980002EF002C02FF003C030F004C031F032500E
:101990002E5C33502F583450305835503158D8A021
:1019A000D4EF0CF0D6EF0CF0DAEF0CF043EC0AF0C9
:1019B000EBEF0CF032502E5C33502F58345030582F
:1019C00035503158D8B0E7EF0CF0E9EF0CF0EBEF01
:1019D0000CF0CEEC0FF012001E501F102010211042
:1019E000D8B4F5EF0CF0F7EF0CF027EF0DF0010E87
:1019F000226E01EF0DF0D8901E361F3620362136AC
:101A0000222A21AE06EF0DF008EF0DF0FBEF0CF0EF
:101A10001E501A5C1F501B5820501C5821501D5836
:101A2000D8A015EF0DF017EF0DF01FEF0DF01E50C1
:101A30001A5E1F501B5A20501C5A21501D5AD89014
:101A4000213220321F321E32222E08EF0DF01AC032
:101A50001AF01BC01BF01CC01CF01DC01DF01200B2
:101A6000016E000E026E63EF0DF0000E036E630E4A
:101A700003643DEF0DF03FEF0DF041EF0DF062EF2D
:101A80000DF0000E046E280E046449EF0DF04BEFCC
:101A90000DF04DEF0DF05FEF0DF0000E056E020E34
:101AA000056455EF0DF057EF0DF059EF0DF05CEFB9
:101AB0000DF0052A4FEF0DF0042A43EF0DF0032A35
:101AC00037EF0DF0022A0150025CD8A06AEF0DF04A
:101AD0006CEF0DF035EF0DF01200000E056E000EEC
:101AE000046E04C001F0010E026E000E036E012AA6
:101AF0007DEF0DF0D89002360336012E7AEF0DF00F
:101B00003C5002163D50031602500310D8B48BEF20
:101B10000DF08DEF0DF097EF0DF0110E0424F66E21
:101B2000060E0520F76E0800F550A8EF0DF0044AE8
:101B3000052A05BEA5EF0DF0055009E10A0E045C6B
:101B4000D8A0A5EF0DF0A7EF0DF071EF0DF0000E8E
:101B50001200000E096E000E0A6E000E0B6E000ED3
:101B60000C6E01A0B6EF0DF0B8EF0DF0C0EF0DF068
:101B70000550092606500A2207500B2208500C2255
:101B8000D8900536063607360836D8900432033228
:101B9000023201320150021003100410D8A4D3EF16
:101BA0000DF0D5EF0DF0B1EF0DF009C001F00AC056
:101BB00002F00BC003F00CC004F012000D6E0DC05B
:101BC0000CF00C3A0F0E0C160C50076E086AB5ECB0
:101BD0000EF0000E026E1D0E016E0AC003F00BC067
:101BE00004F0E0EC04F000EC0FF00DC00CF00F0E70
:101BF0000C160C50076E086AB5EC0EF0000E026E63
:101C00001D0E016E0AC003F00BC004F0E0EC04F0FE
:101C100000EC0FF01200026E0150D8A412EF0EF08B
:101C200014EF0EF016EF0EF002C042F00104D8A43B
:101C30001CEF0EF01EEF0EF020EF0EF002C041F090
:101C4000020E0118D8A427EF0EF029EF0EF02BEFAB
:101C50000EF002C040F0030E0118D8A432EF0EF0CF
:101C600034EF0EF036EF0EF002C03FF01200000E1F
:101C7000026E180E016E000E046E000E036E07EC6D
:101C800006F0000E026E190E016E000E046E000EBC
:101C9000036E07EC06F0000E026E1A0E016E000EC7
:101CA000046E000E036E07EC06F0000E026E1B0EB3
:101CB000016E000E046E000E036E07EC06F021ECC0
:101CC0000FF01200000E146E000E136E78EF0EF07F
:101CD00013500F24116E14501020126E11C0F6FF15
:101CE00012C0F7FF0800F55007EC10F0134A142A51
:101CF00013500F24116E14501020126E11C0F6FFF5
:101D000012C0F7FF0800F5500009D8A48AEF0EF0C2
:101D10008CEF0EF068EF0EF01200C30EC2160250E8
:101D200007E1030E015CD8B098EF0EF09AEF0EF0C9
:101D30009EEF0EF00144E846FC0BC212C282C2B212
:101D4000A4EF0EF0A6EF0EF09FEF0EF0C4CF03F05D
:101D5000046A0350046E036AC3500326000E042273
:101D600003C001F004C002F01200000E026E080E63
:101D7000016E000E046E000E036EE0EC04F0000E27
:101D8000096E000E026E1E0E016E800E0714036EA9
:101D9000046AE0EC04F0B9EC0FF0D890073608368E
:101DA000092A070E0964D7EF0EF0D9EF0EF0C1EF44
:101DB0000EF0A4EC0FF01200000E026E000E016E89
:101DC000000E046E010E036E07EC06F0000E026EAC
:101DD000010E016E000E046E010E036E07EC06F09C
:101DE000000E026E020E016E000E046E010E036EF6
:101DF00007EC06F0C2800C0EC16EAA0EC06E120077
:101E0000000E026E1C0E016E000E046E010E036EBB
:101E1000E0EC04F0000E026E050E016E59EC10F0BD
:101E2000000E026E1C0E016E000E046E000E036E9C
:101E3000E0EC04F0000E026E050E016E59EC10F09D
:101E40001200000E026E1F0E016E000E046E000ED8
:101E5000036E07EC06F0000E026E080E016E000E17
:101E6000046E000E036E07EC06F0000E026E1E0EEE
:101E7000016E000E046E000E036E07EC06F01200F9
:101E80000F501010D8A447EF0FF049EF0FF04EEFAE
:101E90000FF011500F0B800F16EC10F00F04101004
:101EA000D8A455EF0FF057EF0FF05CEF0FF0115083
:101EB0000F0BC00F16EC10F0120021EC0FF0000E0B
:101EC000026E0A0E016E000E046E010E036E07EC28
:101ED00006F0000E026E090E016E000E046E010E79
:101EE000036E07EC06F00C0EC16E1200000E056EBC
:101EF000000E046E7EEF0FF0044A052A0150045CC8
:101F00000550800A036E0250800A0358D8A08BEF58
:101F10000FF08DEF0FF07CEF0FF01200000E016E4E
:101F2000ABA295EF0FF097EF0FF099EF0FF0AB9892
:101F3000AB889EAA9EEF0FF0A0EF0FF0A2EF0FF07C
:101F4000AECF01F001501200000E026E1F0E016EA6
:101F5000000E046E010E036EE0EC04F0000E026E43
:101F60001F0E016E000E046E000E036EE0EC04F016
:101F70001200000E026E080E016E000E046E010EBD
:101F8000036EE0EC04F0000E026E080E016E000E0F
:101F9000046E000E036EE0EC04F01200000E016E01
:101FA000000E0BEC0EF0010E016E000E0BEC0EF0AD
:101FB000020E016E000E0BEC0EF0030E016E000E11
:101FC0000BEC0EF012000C6E0CC007F0086AB5ECBA
:101FD0000EF0000E026E1D0E016E0AC003F00BC063
:101FE00004F0E0EC04F000EC0FF01200D8900134A3
:101FF000036E0234046E031E041E320E035E000ED6
:10200000045A0450D76E03C0D6FFF29412000E6E2D
:10201000000E0B6E010E0A6E0E50DEEC0DF0000E7F
:10202000026E500E016E59EC10F012000E6E000E92
:102030000B6E000E0A6E0E50DEEC0DF0000E026EFE
:10204000020E016E76EC0FF012002C0EAC6E900EAC
:10205000AB6E080EB86E000EB06E220EAF6E948C92
:10206000948E120000EE2EF01C0EEE6AE806FDE1E2
:10207000000EF86E000181EF0BF0016E9EA843EF99
:1020800010F045EF10F03EEF10F001C0ADFF120070
:10209000F2A44DEF10F04FEF10F048EF10F01200E7
:1020A0003CC001F03DC002F01200080ED56ED58E86
:0420B0001200120008
:020000040020DA
:08000000FFFFFFFFFFFFFFFF00
:020000040030CA
:0E000000FF027100FF8380FF0FC00FE00F4072
:00000001FF
